:020000040040BA
:10000000A00640209D0B4000190C400095024000C6
:10001000190C4000190C4000190C400000000000B1
:10002000000000000000000000000000190C40006B
:10003000190C400000000000190C4000190C400091
:10004000190C4000190C4000190C4000190C40001C
:10005000190C4000190C4000190C4000190C40000C
:10006000190C400000000000190C4000190C400061
:10007000190C4000190C4000190C4000190C4000EC
:10008000190C4000190C4000190C4000190C4000DC
:10009000190C4000190C4000190C4000190C4000CC
:1000A000190C4000190C4000190C4000190C4000BC
:1000B000190C4000190C4000190C4000190C4000AC
:1000C000190C4000190C4000190C4000190C40009C
:1000D000190C4000190C4000190C4000190C40008C
:1000E000190C4000190C4000190C4000190C40007C
:1000F000190C4000190C4000190C4000190C40006C
:10010000190C4000190C4000190C4000190C40005B
:10011000190C40000000000000000000000000007A
:10012000190C4000190C4000190C4000190C40003B
:10013000190C4000190C4000190C4000190C40002B
:10014000190C4000190C4000190C4000190C40001B
:10015000190C4000190C4000190C4000190C40000B
:10016000190C4000190C40000348044B834202D094
:10017000034B03B118477047800D4000800D4000CD
:1001800000000000054806490B1AD90F01EBA30136
:10019000491002D0034B03B118477047800D40004F
:1001A000800D40000000000010B5064C237843B9D4
:1001B000FFF7DAFF044B13B10448AFF300800123CB
:1001C000237010BD0000402000000000800D4000A2
:1001D00008B5044B1BB104490448AFF30080BDE8E7
:1001E0000840CFE70000000004004020800D4000E0
:1001F00070B50D4E0D4D761BB61006D0002401349F
:1002000055F8043B9847A642F9D1094E094D761B93
:1002100000F0A6FDB61006D00024013455F8043BCA
:100220009847A642F9D170BD6C0D40006C0D40009E
:10023000700D40006C0D400080B400AF00BFBD46A3
:100240005DF8047B704780B400AF00BFBD465DF829
:10025000047B704780B500AF00F020F8084800F03C
:100260000DFB2D220749084800F0D4FA2E22074939
:10027000074800F0CFFA00F02BFB0023184680BDA2
:100280003C0C40004C0C400069034000600C4000F6
:100290008503400080B400AFFEE7000080B400AFEB
:1002A0002A4B2B4A1A602B4B2B4A9A6200BF294BD0
:1002B0009B6E03F00203022BF9D1264B1B6B254AE0
:1002C00023F07003136300BF224B9B6E03F00803FF
:1002D000082BF9D11F4B1B6B23F440731D4A43F4C9
:1002E0008073136300BF1B4B9B6E03F00803082B46
:1002F000F9D1184B1B6B23F00303164A43F002039A
:10030000136300BF134B9B6E03F00803082BF9D156
:10031000104B4FF457321A61104B0022C3F81421CE
:100320000E4BD3F814310D4A43F01003C2F81431C8
:100330000B4B4FF400425A600A4B4FF400425A6094
:1003400000BFBD465DF8047B704700BF000C0E4047
:100350000006000400060E40013F182000800840FF
:1003600000190E4050180E4080B500AF23210348FD
:1003700000F02AFA0121024800F058FC7C0C4000F1
:100380004400402080B582B002AF1423009328239C
:1003900000222A212A2000F0D5F900BFBD4680BDE9
:1003A00080B582B000AF78607B681B787E2B09D85F
:1003B0007B681B781F2B05D97B681B78184600F0DB
:1003C000D1FA21E07B681B780D2B06D15C2000F070
:1003D000C9FA722000F0C6FA16E07B681B780A2B77
:1003E00006D15C2000F0BEFA6E2000F0BBFA0BE0F4
:1003F0005C2000F0B7FA782000F0B4FA7B681B7834
:100400000221184600F0CCF800BF0837BD4680BD79
:1004100080B584B000AF78607B68FB60FB68002B20
:100420000AD005E0F868FFF7BBFFFB680133FB600B
:10043000FB681B78002BF5D100BF1037BD4680BD8F
:1004400080B582B000AF78600B46FB70FB7803F09C
:100450001003002B38D0FB78912B31D1272000F0EE
:1004600081FA7B687E2B08DC7B681F2B05DD7B68AF
:10047000DBB2184600F076FA1EE07B680D2B06D141
:100480005C2000F06FFA722000F06CFA14E07B68D8
:100490000A2B06D15C2000F065FA6E2000F062FAAB
:1004A0000AE05C2000F05EFA782000F05BFA7B68DE
:1004B0000221184600F074F8272000F053FA1EE0DD
:1004C000786800F020F81AE0FB7803F02003002B96
:1004D00004D07B68184600F02DF810E0302000F0C2
:1004E00041FA782000F03EFA7A68FB7803F00F03B7
:1004F000DBB25B00DBB21946104600F051F800BFDA
:100500000837BD4680BD80B584B000AF78607B6899
:10051000FB607B68002B05DA2D2000F023FAFB68D6
:100520005B42FB60F86800F005F800BF1037BD467D
:1005300080BD000080B584B000AF78600123FB600F
:1005400005E0FA6813469B0013445B00FB607A6881
:10055000FB68B2FBF3F3092BF3D87A68FB68B2FBB4
:10056000F3F10E4BA3FB0123DA0813469B0013445F
:100570005B00CA1AD3B23033DBB2184600F0F2F98E
:10058000FB68064AA2FB0323DB08FB60FB68002B29
:10059000E3D100BF00BF1037BD4680BDCDCCCCCC71
:1005A00080B584B000AF78600B46FB70FB78FB73BE
:1005B000FB7B082B1FD90823FB731CE0FB7B013B53
:1005C000FB73FB7B9B007A6822FA03F303F00F03B3
:1005D000BB60BB68092B07DCBB68DBB23033DBB226
:1005E000184600F0BFF906E0BB68DBB23733DBB278
:1005F000184600F0B7F9FB7B002BDFD100BF00BF2E
:100600001037BD4680BD000080B582B000AF786075
:1006100039607868FFF7FCFE3A2000F0A3F93B68E8
:100620001846FFF770FF3A2000F09CF9054B5B6815
:100630001846FFF7EDFE3A2000F094F900BF0837A6
:10064000BD4680BD1C00402080B582B000AF786000
:10065000074B1B6879681846FFF7D6FF0548FFF778
:10066000D7FE3A2000F07EF900BF0837BD4680BDB6
:100670001C0040209C0C400080B500AF154B5B6A0D
:10068000002B05D0134BDB690133124AD36114E010
:10069000104B1B6A002B0BD10E4B1B680D4A1269C5
:1006A00011461846FFF7B0FF0B48FFF7B1FE04E014
:1006B000084B9B690133074A9361064B00221A627B
:1006C000044B00225A620A2000F04CF900F030FA84
:1006D00000BF80BD1C004020940C400080B582B05B
:1006E00000AF78607B68002B20D01248FFF790FEA7
:1006F000114B9B68002B16D01048FFF789FE0E4B5C
:100700009B681846FFF784FE0B4BDB68002B07D075
:100710000B48FFF77DFE084BDB681846FFF778FEB5
:100720000448FFF775FE7868FFF772FE00BF0837D0
:10073000BD4680BDA40C40001C004020240D40009C
:10074000300D400080B584B000AFF860B9607A60C9
:100750003B60194B1B6A002B03D1174B5B6A002BC4
:1007600003D00121154800F061FAFA68BB689A428B
:100770001ED03868FFF768FF1148FFF749FE3B7E3F
:100780001946F868FFF75CFE0E48FFF741FE3B7E16
:100790001946B868FFF754FE7868FFF79FFF064BCD
:1007A00001221A6200F0C4F90121044800F03EFA67
:1007B00000BF1037BD4680BD1C00402044004020D3
:1007C000A80C4000B40C400080B582B000AF786047
:1007D00039600E4B1B6839681846FFF715FF0C4847
:1007E000FFF716FE7B68002B08D03A2000F0BAF81D
:1007F000202000F0B7F87868FFF70AFE0A2000F022
:10080000B1F800BF0837BD4680BD00BF1C004020C6
:10081000580D400080B584B000AFF860B9607A60D0
:10082000144ABB6853607B68124A1361114B5B69C1
:100830000133104A53610F4B00229A600D4B002286
:10084000DA600D4800F0ECF90346002B03D1FFF706
:10085000F3FCFB689847084800F0E2F90346002BD8
:1008600001D1FFF7F0FCFFF707FF00BF1037BD46CF
:1008700080BD00BF1C0040204400402080B582B0F5
:1008800000AF7860114A7B681360104B00225A60F9
:100890000E4B00221A610D4B00225A610B4B0022B5
:1008A0009A610A4B0022DA61084B00221A62074B58
:1008B00000225A62054B00229A60044B0022DA6043
:1008C00000F074F800BF0837BD4680BD1C00402012
:1008D00080B500AF0A2000F045F81B48FFF798FDEF
:1008E0000A2000F03FF8194B5B691846FFF70BFE32
:1008F0001748FFF78DFD154B9B691846FFF703FE60
:100900001448FFF785FD114BDB691846FFF7FBFD27
:100910001148FFF77DFD0A2000F024F80B4B9B697E
:10092000002B03D10D48FFF773FD02E00C48FFF7E1
:100930006FFD0A2000F016F800F0FAF800F014F944
:10094000024B9B69184680BDEC0C40001C00402007
:10095000040D40000C0D4000180D4000900C4000AC
:100960009C0C400080B485B000AF0346FB710D4A7B
:10097000FB79D3610023FB6002E0FB680133FB607D
:10098000084B5B695B0803F00103012B03D0FB6894
:10099000054A9342F1DB00BF1437BD465DF8047B86
:1009A000704700BF008002408096980080B487B0F6
:1009B00000AF594B4EF280121A61574B4FF4E04290
:1009C000C3F80021544B1B6B03F00303FB600023AF
:1009D0007B61FB68032B2CD801A252F823F000BFE7
:1009E000F1094000F9094000FF0940001F0A4000DA
:1009F0004FF400437B611DE0484B7B611AE0464B9E
:100A00009B6A1B0CC3F30A030133444A02FB03F243
:100A1000414B9B6ADBB2B2FBF3F37B610AE03E4BD6
:100A20001B6B5B0B03F001033D4AB2FBF3F37B61ED
:100A300000E000BF384B1B6B1B0903F00703BB60D2
:100A40000122BB6802FA03F3BB60334B1B6B1B0A2A
:100A500003F003033B6101223B6902FA03F33B61AC
:100A60003B69082B01D103233B61BB683A6902FB58
:100A700003F37A69B2FBF3F37B617B691B097B604B
:100A80007B68284AA2FB03231B0C7B60264A7B68F9
:100A90001362264B10225A60244B10225A61234BBA
:100AA00010225A62214B00225A63204B4FF6FF72EC
:100AB0005A641E4B00221A651C4B10225A651B4BB0
:100AC00010221A66194B00225A66184B1022C3F8DE
:100AD0009020164B10221A67144B10225A67124BA3
:100AE00000225A60104B4FF40C625A600E4B0022E9
:100AF0001A600D4B40221A6000BF0B4B5B695B080C
:100B000003F00103012BF8D100BF00BF1C37BD4625
:100B10005DF8047B704700BF00060E40001BB70065
:100B200000389C1CC5B3A2910080024000100E400A
:100B300080B400AF0B4B80221A600A4B00221A606F
:100B4000084B40221A6000BF064B5B695B0803F04C
:100B50000103012BF8D100BF00BFBD465DF8047B47
:100B6000704700BF0080024080B400AF094B4EF2D6
:100B700080125A61074B4FF4E042C3F80421064B40
:100B800008221A60044B80221A6000BFBD465DF83F
:100B9000047B704700060E400080024080B582B0A2
:100BA00000AF164B7B60164B3B607A683B689A42FD
:100BB0000CD007E07A68131D7B603B68191D396013
:100BC00012681A603B680F4A9342F3D30E4B3B60A6
:100BD00004E03B681A1D3A6000221A603B680B4A29
:100BE0009342F6D30A4B7B607B680A4A23F07F036B
:100BF0009360FFF7FDFAFFF72DFBFEE7800D400045
:100C0000000040200000402000004020A0004020C4
:100C10000000400000ED00E080B400AFFEE70000FF
:100C2000EC46A0E8F05F4FF000007047B0E8F05FDE
:100C3000E546080008BF0120704700BF5465737483
:100C4000204578616D706C65730000007465737485
:100C50005F74686174537563636565647300000055
:100C6000746573745F7375636365656473576974E2
:100C700068436F6E646974696F6E000054686973CD
:100C800020746573742070617373656400000000E4
:100C90004F4B000050415353000000004641494C67
:100CA000000000002E200000204578706563746508
:100CB000642000002057617320000000496E6669BF
:100CC0006E697479000000004E656761746976652D
:100CD00020496E66696E6974790000004E614E00AD
:100CE00044657465726D696E617465002D2D2D2DDE
:100CF0002D2D2D2D2D2D2D2D2D2D2D2D2D2D2D2D24
:100D00002D2D2D00205465737473200020466169D9
:100D10006C757265732000002049676E6F726564A0
:100D20002000000046756E6374696F6E200000003D
:100D300020417267756D656E742000003000000000
:100D40006E616E00696E6600BC0C4000C80C40000D
:100D5000DC0C4000E00C4000494E464F0000000013
:100D6000F8B500BFF8BC08BC9E467047D1014000F2
:100D7000F8B500BFF8BC08BC9E467047A90140000A
:0400000500400B9D0F
:00000001FF
