:020000040040BA
:10000000A0064020790D4000F50D4000CD024000D3
:10001000F50D4000F50D4000F50D4000000000001A
:10002000000000000000000000000000F50D40008E
:10003000F50D400000000000F50D4000F50D4000FA
:10004000F50D4000F50D4000F50D4000F50D4000A8
:10005000F50D4000F50D4000F50D4000F50D400098
:10006000F50D400000000000F50D4000F50D4000CA
:10007000F50D4000F50D4000F50D4000F50D400078
:10008000F50D4000F50D4000F50D4000F50D400068
:10009000F50D4000F50D4000F50D4000F50D400058
:1000A000F50D4000F50D4000F50D4000F50D400048
:1000B000F50D4000F50D4000F50D4000F50D400038
:1000C000F50D4000F50D4000F50D4000F50D400028
:1000D000F50D4000F50D4000F50D4000F50D400018
:1000E000F50D4000F50D4000F50D4000F50D400008
:1000F000F50D4000F50D4000F50D4000F50D4000F8
:10010000F50D4000F50D4000F50D4000F50D4000E7
:10011000F50D40000000000000000000000000009D
:10012000F50D4000F50D4000F50D4000F50D4000C7
:10013000F50D4000F50D4000F50D4000F50D4000B7
:10014000F50D4000F50D4000F50D4000F50D4000A7
:10015000F50D4000F50D4000F50D4000F50D400097
:10016000F50D4000F50D40000348044B834202D0DA
:10017000034B03B1184770476410400064104000FF
:1001800000000000054806490B1AD90F01EBA30136
:10019000491002D0034B03B1184770476410400068
:1001A000641040000000000010B5064C237843B9ED
:1001B000FFF7DAFF044B13B10448AFF300800123CB
:1001C000237010BD000040200000000064104000BB
:1001D00008B5044B1BB104490448AFF30080BDE8E7
:1001E0000840CFE7000000000400402064104000F9
:1001F00070B50D4E0D4D761BB61006D0002401349F
:1002000055F8043B9847A642F9D1094E094D761B93
:1002100000F018FFB61006D00024013455F8043B56
:100220009847A642F9D170BD5010400050104000D0
:10023000541040005010400080B500AF00F0DEFDCB
:1002400000BF80BD80B400AF00BFBD465DF8047B39
:100250007047000080B500AF00F03CF8104800F097
:10026000FBFB2E220F49104800F0C2FB2F220F4942
:100270000F4800F0BDFB30220E490F4800F0B8FBDC
:1002800031220E490E4800F0B3FB32220D490E48D0
:1002900000F0AEFB00F00AFC0023184680BD00BF52
:1002A0001C0F4000300F4000A1034000500F4000E1
:1002B0000F044000700F40007D044000900F40008C
:1002C000ED044000B00F40005D05400080B400AF79
:1002D000FEE7000080B400AF2A4B2B4A1A602B4B7C
:1002E0002B4A9A6200BF294B9B6E03F00203022B3C
:1002F000F9D1264B1B6B254A23F07003136300BF13
:10030000224B9B6E03F00803082BF9D11F4B1B6B8C
:1003100023F440731D4A43F48073136300BF1B4BE7
:100320009B6E03F00803082BF9D1184B1B6B23F0CD
:100330000303164A43F00203136300BF134B9B6E83
:1003400003F00803082BF9D1104B4FF457321A6110
:10035000104B0022C3F814210E4BD3F814310D4A70
:1003600043F01003C2F814310B4B4FF400425A60B3
:100370000A4B4FF400425A6000BFBD465DF8047B53
:10038000704700BF000C0E400006000400060E403F
:10039000013F18200080084000190E4050180E4000
:1003A00080B586B002AF0023FB600223BB60B96852
:1003B000F86800F03BFD78601423009325230022A9
:1003C00079684FF0FF3000F0D1FA0123FB60B96883
:1003D000F86800F02BFD7860142300932823002296
:1003E0007968002000F0C2FA0223FB60B968F8685F
:1003F00000F01CFD7860142300932B230022796801
:10040000002000F0B3FA00BF1037BD4680BD80B5B4
:1004100086B002AF0A23FB600223BB60B968F868AC
:1004200000F004FD786014230093332300227968E0
:100430004FF0FF3000F09AFA0923FB60B968F868C2
:1004400000F0F4FC786014230093362300227968CE
:10045000002000F08BFA0823FB60B968F86800F010
:10046000E5FC78601423009339230022796800208A
:1004700000F07CFA00BF1037BD4680BD80B586B065
:1004800002AF0223FB600023BB60B968F86800F08C
:10049000CDFC7860142300934123002279684FF04B
:1004A000FF3000F063FA0123BB60B968F86800F020
:1004B000BDFC7860142300934423002279684FF038
:1004C000FF3000F053FA0223BB60B968F86800F00F
:1004D000ADFC786014230093472300227968002044
:1004E00000F044FA00BF1037BD4680BD80B586B02D
:1004F00002AF0223FB600623BB60B968F86800F016
:1005000095FC7860142300934F23002279684FF004
:10051000FF3000F02BFA0523BB60B968F86800F0E3
:1005200085FC786014230093522300227968002010
:1005300000F01CFA0423BB60B968F86800F076FC90
:10054000786014230093552300227968002000F07E
:100550000DFA00BF1037BD4680BD000080B586B0E3
:1005600002AF0223BB600123FB6023E0154B9B68B5
:100570007B60FB68B968184600F058FC38601423AB
:1005800000935F2300223968002000F0EFF9FB6838
:10059000BA6802FB03F318460A4B9A687B68D31AC1
:1005A0001946142300936023002200F0DFF9FB6852
:1005B0000133FB60FB68042BD8DD00BF00BF1037A0
:1005C000BD4680BD30180E4080B582B000AF786067
:1005D0007B681B787E2B09D87B681B781F2B05D97D
:1005E0007B681B78184600F0ABFA21E07B681B782B
:1005F0000D2B06D15C2000F0A3FA722000F0A0FAC7
:1006000016E07B681B780A2B06D15C2000F098FA74
:100610006E2000F095FA0BE05C2000F091FA782053
:1006200000F08EFA7B681B780221184600F0CCF8A7
:1006300000BF0837BD4680BD80B584B000AF78608C
:100640007B68FB60FB68002B0AD005E0F868FFF7C9
:10065000BBFFFB680133FB60FB681B78002BF5D107
:1006600000BF1037BD4680BD80B582B000AF786056
:100670000B46FB70FB7803F01003002B38D0FB789F
:10068000912B31D1272000F05BFA7B687E2B08DCB0
:100690007B681F2B05DD7B68DBB2184600F050FA43
:1006A0001EE07B680D2B06D15C2000F049FA722019
:1006B00000F046FA14E07B680A2B06D15C2000F0BB
:1006C0003FFA6E2000F03CFA0AE05C2000F038FAB5
:1006D000782000F035FA7B680221184600F074F8A3
:1006E000272000F02DFA1EE0786800F020F81AE0CC
:1006F000FB7803F02003002B04D07B68184600F041
:100700002DF810E0302000F01BFA782000F018FAE5
:100710007A68FB7803F00F03DBB25B00DBB21946AB
:10072000104600F051F800BF0837BD4680BD80B5C7
:1007300084B000AF78607B68FB607B68002B05DAD3
:100740002D2000F0FDF9FB685B42FB60F86800F0CB
:1007500005F800BF1037BD4680BD000080B584B0ED
:1007600000AF78600123FB6005E0FA6813469B0048
:1007700013445B00FB607A68FB68B2FBF3F3092B60
:10078000F3D87A68FB68B2FBF3F10E4BA3FB0123AD
:10079000DA0813469B0013445B00CA1AD3B2303305
:1007A000DBB2184600F0CCF9FB68064AA2FB032333
:1007B000DB08FB60FB68002BE3D100BF00BF1037F4
:1007C000BD4680BDCDCCCCCC80B584B000AF7860C8
:1007D0000B46FB70FB78FB73FB7B082B1FD90823B0
:1007E000FB731CE0FB7B013BFB73FB7B9B007A688C
:1007F00022FA03F303F00F03BB60BB68092B07DC8D
:10080000BB68DBB23033DBB2184600F099F906E082
:10081000BB68DBB23733DBB2184600F091F9FB7BE3
:10082000002BDFD100BF00BF1037BD4680BD0000E8
:1008300080B582B000AF786039607868FFF7FCFE61
:100840003A2000F07DF93B681846FFF770FF3A2028
:1008500000F076F9054B5B681846FFF7EDFE3A208D
:1008600000F06EF900BF0837BD4680BD1C00402077
:1008700080B582B000AF7860074B1B687968184676
:10088000FFF7D6FF0548FFF7D7FE3A2000F058F9EA
:1008900000BF0837BD4680BD1C004020D40F40007B
:1008A00080B500AF154B5B6A002B05D0134BDB699D
:1008B0000133124AD36114E0104B1B6A002B0BD199
:1008C0000E4B1B680D4A126911461846FFF7B0FF20
:1008D0000B48FFF7B1FE04E0084B9B690133074A60
:1008E0009361064B00221A62044B00225A620A20CE
:1008F00000F026F900F00AFA00BF80BD1C0040207D
:10090000CC0F400080B582B000AF78607B68002BD0
:1009100020D01248FFF790FE114B9B68002B16D099
:100920001048FFF789FE0E4B9B681846FFF784FEC0
:100930000B4BDB68002B07D00B48FFF77DFE084B05
:10094000DB681846FFF778FE0448FFF775FE786805
:10095000FFF772FE00BF0837BD4680BDDC0F4000C8
:100960001C0040202C1040003810400080B584B09E
:1009700000AFF860B9607A603B60194B1B6A002BCE
:1009800003D1174B5B6A002B03D00121154800F0FF
:10099000BDFAFA68BB689A421ED03868FFF768FF54
:1009A0001148FFF749FE3B7E1946F868FFF75CFEE9
:1009B0000E48FFF741FE3B7E1946B868FFF754FE2C
:1009C0007868FFF79FFF064B01221A6200F09EF93C
:1009D0000121044800F09AFA00BF1037BD4680BDDF
:1009E0001C00402044004020E00F4000EC0F40007D
:1009F00080B584B000AFF860B9607A60144ABB6813
:100A000053607B68124A1361114B5B690133104AD2
:100A100053610F4B00229A600D4B0022DA600D48A3
:100A200000F06EFA0346002B03D1FFF705FCFB68CC
:100A30009847084800F064FA0346002B01D1FFF7FD
:100A400001FCFFF72DFF00BF1037BD4680BD00BF82
:100A50001C0040204400402080B582B000AF786088
:100A6000114A7B681360104B00225A600E4B002223
:100A70001A610D4B00225A610B4B00229A610A4BFE
:100A80000022DA61084B00221A62074B00225A62E8
:100A9000054B00229A60044B0022DA6000F074F8E3
:100AA00000BF0837BD4680BD1C00402080B500AFA8
:100AB0000A2000F045F81B48FFF7BEFD0A2000F0B1
:100AC0003FF8194B5B691846FFF731FE1748FFF7EF
:100AD000B3FD154B9B691846FFF729FE1448FFF735
:100AE000ABFD114BDB691846FFF721FE1148FFF7FC
:100AF000A3FD0A2000F024F80B4B9B69002B03D1C7
:100B00000D48FFF799FD02E00C48FFF795FD0A201C
:100B100000F016F800F0FAF800F014F9024B9B69A7
:100B2000184680BDF40F40001C0040200C1040000F
:100B30001410400020104000C80F4000D40F4000A7
:100B400080B485B000AF0346FB710D4AFB79D361D9
:100B50000023FB6002E0FB680133FB60084B5B692C
:100B60005B0803F00103012B03D0FB68054A9342A5
:100B7000F1DB00BF1437BD465DF8047B704700BF52
:100B8000008002408096980080B487B000AF594B37
:100B90004EF280121A61574B4FF4E042C3F8002125
:100BA000544B1B6B03F00303FB6000237B61FB686A
:100BB000032B2CD801A252F823F000BFCD0B40002C
:100BC000D50B4000DB0B4000FB0B40004FF4004313
:100BD0007B611DE0484B7B611AE0464B9B6A1B0C16
:100BE000C3F30A030133444A02FB03F2414B9B6AFD
:100BF000DBB2B2FBF3F37B610AE03E4B1B6B5B0B9A
:100C000003F001033D4AB2FBF3F37B6100E000BF58
:100C1000384B1B6B1B0903F00703BB600122BB6849
:100C200002FA03F3BB60334B1B6B1B0A03F0030395
:100C30003B6101223B6902FA03F33B613B69082BEC
:100C400001D103233B61BB683A6902FB03F37A6974
:100C5000B2FBF3F37B617B691B097B607B68284AED
:100C6000A2FB03231B0C7B60264A7B681362264B86
:100C700010225A60244B10225A61234B10225A62D0
:100C8000214B00225A63204B4FF6FF725A641E4BD1
:100C900000221A651C4B10225A651B4B10221A6643
:100CA000194B00225A66184B1022C3F89020164B9D
:100CB00010221A67144B10225A67124B00225A60F6
:100CC000104B4FF40C625A600E4B00221A600D4B11
:100CD00040221A6000BF0B4B5B695B0803F0010305
:100CE000012BF8D100BF00BF1C37BD465DF8047B67
:100CF000704700BF00060E40001BB70000389C1C68
:100D0000C5B3A2910080024000100E4080B400AF35
:100D10000B4B80221A600A4B00221A60084B4022BB
:100D20001A6000BF064B5B695B0803F00103012BEF
:100D3000F8D100BF00BFBD465DF8047B704700BF1F
:100D40000080024080B400AF094B4EF280125A611D
:100D5000074B4FF4E042C3F80421064B08221A6007
:100D6000044B80221A6000BFBD465DF8047B7047CB
:100D700000060E400080024080B582B000AF164BE6
:100D80007B60164B3B607A683B689A420CD007E068
:100D90007A68131D7B603B68191D396012681A6000
:100DA0003B680F4A9342F3D30E4B3B6004E03B6831
:100DB0001A1D3A6000221A603B680B4A9342F6D330
:100DC0000A4B7B607B680A4A23F07F039360FFF73E
:100DD0000FFAFFF73FFAFEE76410400000004020E2
:100DE0000000402000004020A00040200000400003
:100DF00000ED00E080B400AFFEE7000080B400AF7B
:100E0000084B4FF480721A60064B4FF480721A61DF
:100E1000054B4FF082721A6000231846BD465DF8FC
:100E2000047B704700120E4030180E4080B584B02D
:100E300000AF786039607B68002B02D14FF0FF3340
:100E40003EE07B68092B02D94FF0FF3338E03B6866
:100E5000012B02D84FF0FF3332E03B68052B02D95B
:100E60004FF0FF332CE03B685B083B60002000F054
:100E70002DF80023FB601EE0012000F027F8124B44
:100E80009B68BB6000BFBA683B681A440E4B9B6806
:100E90009A42F8D2002000F019F80B4B9B68BB6017
:100EA00000BFBA683B681A44074B9B689A42F8D265
:100EB000FB680133FB60FB687A689A42DCD8002348
:100EC00018461037BD4680BD30180E4080B483B040
:100ED00000AF0346FB71FB79002B04D0074B4FF4A6
:100EE00080721A6303E0054B4FF480725A6300234B
:100EF00018460C37BD465DF8047B704700120E4063
:100F0000EC46A0E8F05F4FF000007047B0E8F05FFB
:100F1000E546080008BF0120704700BF6D6F64758B
:100F20006C65732F6C65646374726C2E63000000D3
:100F3000746573745F636865636B5F6D696E5F6E24
:100F4000756D6265725F626C696E6B7300000000A4
:100F5000746573745F636865636B5F6D61785F6E02
:100F6000756D6265725F626C696E6B730000000084
:100F7000746573745F636865636B5F6D696E5F62F0
:100F80006C696E6B5F6475726174696F6E000000EE
:100F9000746573745F636865636B5F6D61785F62CE
:100FA0006C696E6B5F6475726174696F6E000000CE
:100FB000746573745F746F74616C5F626C696E6B7F
:100FC0005F6C656E677468004F4B0000504153536F
:100FD000000000004641494C000000002E200000A7
:100FE0002045787065637465642000002057617344
:100FF000200000002D2D2D2D2D2D2D2D2D2D2D2DB5
:101000002D2D2D2D2D2D2D2D2D2D2D0020546573A5
:1010100074732000204661696C757265732000004E
:101020002049676E6F7265642000000046756E632C
:1010300074696F6E2000000020417267756D656EE7
:1010400074200000F8B500BFF8BC08BC9E4670478D
:10105000D1014000F8B500BFF8BC08BC9E467047FF
:04106000A9014000A2
:0400000500400D7931
:00000001FF
