:020000040040BA
:10000000200640203D034000B90340006B02400041
:10001000B9034000B9034000B903400000000000EC
:10002000000000000000000000000000B9034000D4
:10003000B903400000000000B9034000B9034000CC
:10004000B9034000B9034000B9034000B9034000C0
:10005000B9034000B9034000B9034000B9034000B0
:10006000B903400000000000B9034000B90340009C
:10007000B9034000B9034000B9034000B903400090
:10008000B9034000B9034000B9034000B903400080
:10009000B9034000B9034000B9034000B903400070
:1000A000B9034000B9034000B9034000B903400060
:1000B000B9034000B9034000B9034000B903400050
:1000C000B9034000B9034000B9034000B903400040
:1000D000B9034000B9034000B9034000B903400030
:1000E000B9034000B9034000B9034000B903400020
:1000F000B9034000B9034000B9034000B903400010
:10010000B9034000B9034000B9034000B9034000FF
:10011000B9034000000000000000000000000000E3
:10012000B9034000B9034000B9034000B9034000DF
:10013000B9034000B9034000B9034000B9034000CF
:10014000B9034000B9034000B9034000B9034000BF
:10015000B9034000B9034000B9034000B9034000AF
:10016000B9034000B90340000348044B834202D066
:10017000034B03B118477047E4044000E404400017
:1001800000000000054806490B1AD90F01EBA30136
:10019000491002D0034B03B118477047E4044000F4
:1001A000E40440000000000010B5064C237843B979
:1001B000FFF7DAFF044B13B10448AFF300800123CB
:1001C000237010BD0000402000000000E404400047
:1001D00008B5044B1BB104490448AFF30080BDE8E7
:1001E0000840CFE70000000004004020E404400085
:1001F00070B50D4E0D4D761BB61006D0002401349F
:1002000055F8043B9847A642F9D1094E094D761B93
:1002100000F058F9B61006D00024013455F8043B1C
:100220009847A642F9D170BDD0044000D0044000E8
:10023000D4044000D004400080B500AF00F018F8AE
:1002400000F0BEF80221052000F0D2F803210420BE
:1002500000F0CEF80421032000F0CAF805210220A6
:1002600000F0C6F80023184680BD80B400AFFEE75A
:1002700080B400AF2A4B2B4A1A602B4B2B4A9A6250
:1002800000BF294B9B6E03F00203022BF9D1264BD2
:100290001B6B254A23F07003136300BF224B9B6E38
:1002A00003F00803082BF9D11F4B1B6B23F4407399
:1002B0001D4A43F48073136300BF1B4B9B6E03F016
:1002C0000803082BF9D1184B1B6B23F00303164AC4
:1002D00043F00203136300BF134B9B6E03F008034C
:1002E000082BF9D1104B4FF457321A61104B0022F2
:1002F000C3F814210E4BD3F814310D4A43F0100308
:10030000C2F814310B4B4FF400425A600A4B4FF4C1
:1003100000425A6000BFBD465DF8047B704700BFD5
:10032000000C0E400006000400060E40013F18209D
:100330000080084000190E4050180E4080B582B071
:1003400000AF164B7B60164B3B607A683B689A4265
:100350000CD007E07A68131D7B603B68191D39607B
:1003600012681A603B680F4A9342F3D30E4B3B600E
:1003700004E03B681A1D3A6000221A603B680B4A91
:100380009342F6D30A4B7B607B680A4A23F07F03D3
:100390009360FFF72DFFFFF74FFFFEE7E4044000F7
:1003A0000000402000004020000040201C004020B1
:1003B0000000400000ED00E080B400AFFEE7000068
:1003C00080B400AF084B4FF480721A60064B4FF4B4
:1003D00080721A61054B4FF082721A600023184632
:1003E000BD465DF8047B704700120E4030180E4089
:1003F00080B584B000AF786039607B68002B02D193
:100400004FF0FF333EE07B68092B02D94FF0FF33FA
:1004100038E03B68012B02D84FF0FF3332E03B68F5
:10042000052B02D94FF0FF332CE03B685B083B60A3
:10043000002000F02DF80023FB601EE0012000F0FA
:1004400027F8124B9B68BB6000BFBA683B681A4430
:100450000E4B9B689A42F8D2002000F019F80B4B23
:100460009B68BB6000BFBA683B681A44074B9B6837
:100470009A42F8D2FB680133FB60FB687A689A42C3
:10048000DCD8002318461037BD4680BD30180E401A
:1004900080B483B000AF0346FB71FB79002B04D01E
:1004A000074B4FF480721A6303E0054B4FF48072E0
:1004B0005A63002318460C37BD465DF8047B70472D
:1004C00000120E40F8B500BFF8BC08BC9E4670474D
:1004D000D1014000F8B500BFF8BC08BC9E4670478B
:0404E000A90140002E
:040000050040033D77
:00000001FF
